{
  "contractName": "ClientRegistration",
  "abi": [
    {
      "inputs": [
        {
          "internalType": "address",
          "name": "",
          "type": "address"
        }
      ],
      "name": "registeredClients",
      "outputs": [
        {
          "internalType": "bool",
          "name": "",
          "type": "bool"
        }
      ],
      "stateMutability": "view",
      "type": "function",
      "constant": true
    },
    {
      "inputs": [],
      "name": "registerClient",
      "outputs": [],
      "stateMutability": "nonpayable",
      "type": "function"
    }
  ],
  "bytecode": "0x608060405234801561001057600080fd5b506102f3806100206000396000f3fe608060405234801561001057600080fd5b50600436106100365760003560e01c80630e18c2901461003b5780636d9fb2871461006b575b600080fd5b610055600480360381019061005091906101dd565b610075565b6040516100629190610225565b60405180910390f35b610073610095565b005b60006020528060005260406000206000915054906101000a900460ff1681565b6000803373ffffffffffffffffffffffffffffffffffffffff1673ffffffffffffffffffffffffffffffffffffffff16815260200190815260200160002060009054906101000a900460ff1615610121576040517f08c379a00000000000000000000000000000000000000000000000000000000081526004016101189061029d565b60405180910390fd5b60016000803373ffffffffffffffffffffffffffffffffffffffff1673ffffffffffffffffffffffffffffffffffffffff16815260200190815260200160002060006101000a81548160ff021916908315150217905550565b600080fd5b600073ffffffffffffffffffffffffffffffffffffffff82169050919050565b60006101aa8261017f565b9050919050565b6101ba8161019f565b81146101c557600080fd5b50565b6000813590506101d7816101b1565b92915050565b6000602082840312156101f3576101f261017a565b5b6000610201848285016101c8565b91505092915050565b60008115159050919050565b61021f8161020a565b82525050565b600060208201905061023a6000830184610216565b92915050565b600082825260208201905092915050565b7f436c69656e7420616c726561647920726567697374657265642e000000000000600082015250565b6000610287601a83610240565b915061029282610251565b602082019050919050565b600060208201905081810360008301526102b68161027a565b905091905056fea2646970667358221220d45cde999410c5be377b038b61c6e621c5828da368e692577c95cd4f1220690e64736f6c634300080d0033",
  "immutableReferences": {},
  "source": "//SPDX-License-Identifier: MIT\r\npragma solidity ^0.8.0;\r\n\r\ncontract ClientRegistration {\r\n    mapping(address => bool) public registeredClients;\r\n\r\n    function registerClient() public {\r\n        require(!registeredClients[msg.sender], \"Client already registered.\");\r\n        registeredClients[msg.sender] = true;\r\n    }\r\n}",
  "sourcePath": "C:\\Users\\Kartik\\OneDrive\\Desktop\\cs540\\project\\contracts\\ClientRegistration.sol",
  "compiler": {
    "name": "solc",
    "version": "0.8.13+commit.abaa5c0e.Emscripten.clang"
  },
  "schemaVersion": "3.4.16",
  "updatedAt": "2023-11-19T10:21:31.978Z",
  "networkType": "ethereum",
  "devdoc": {
    "kind": "dev",
    "methods": {},
    "version": 1
  },
  "userdoc": {
    "kind": "user",
    "methods": {},
    "version": 1
  }
}