{
  "contractName": "ClientRegistration",
  "abi": [
    {
      "inputs": [
        {
          "internalType": "address",
          "name": "credibilityAddress",
          "type": "address"
        }
      ],
      "stateMutability": "nonpayable",
      "type": "constructor"
    },
    {
      "inputs": [
        {
          "internalType": "address",
          "name": "",
          "type": "address"
        }
      ],
      "name": "clients",
      "outputs": [
        {
          "internalType": "int256",
          "name": "credibility",
          "type": "int256"
        },
        {
          "internalType": "int256",
          "name": "ratings",
          "type": "int256"
        },
        {
          "internalType": "uint256",
          "name": "balance",
          "type": "uint256"
        },
        {
          "internalType": "address",
          "name": "owner",
          "type": "address"
        }
      ],
      "stateMutability": "view",
      "type": "function",
      "constant": true
    },
    {
      "inputs": [
        {
          "internalType": "address",
          "name": "",
          "type": "address"
        }
      ],
      "name": "registeredClients",
      "outputs": [
        {
          "internalType": "bool",
          "name": "",
          "type": "bool"
        }
      ],
      "stateMutability": "view",
      "type": "function",
      "constant": true
    },
    {
      "inputs": [],
      "name": "addRatings",
      "outputs": [],
      "stateMutability": "nonpayable",
      "type": "function"
    },
    {
      "inputs": [
        {
          "internalType": "int256",
          "name": "score",
          "type": "int256"
        },
        {
          "internalType": "address",
          "name": "fog",
          "type": "address"
        }
      ],
      "name": "credUpdate",
      "outputs": [],
      "stateMutability": "nonpayable",
      "type": "function"
    },
    {
      "inputs": [],
      "name": "registerClient",
      "outputs": [],
      "stateMutability": "payable",
      "type": "function",
      "payable": true
    }
  ],
  "bytecode": "0x608060405234801561001057600080fd5b50604051610ed7380380610ed7833981810160405281019061003291906100dc565b80600260006101000a81548173ffffffffffffffffffffffffffffffffffffffff021916908373ffffffffffffffffffffffffffffffffffffffff16021790555050610109565b600080fd5b600073ffffffffffffffffffffffffffffffffffffffff82169050919050565b60006100a98261007e565b9050919050565b6100b98161009e565b81146100c457600080fd5b50565b6000815190506100d6816100b0565b92915050565b6000602082840312156100f2576100f1610079565b5b6000610100848285016100c7565b91505092915050565b610dbf806101186000396000f3fe60806040526004361061004a5760003560e01c80630e18c2901461004f5780634cebc0531461008c57806361eed2a9146100b55780636d9fb287146100f5578063db5a5d2a146100ff575b600080fd5b34801561005b57600080fd5b50610076600480360381019061007191906107ca565b610116565b6040516100839190610812565b60405180910390f35b34801561009857600080fd5b506100b360048036038101906100ae9190610863565b610136565b005b3480156100c157600080fd5b506100dc60048036038101906100d791906107ca565b61035a565b6040516100ec94939291906108da565b60405180910390f35b6100fd6103aa565b005b34801561010b57600080fd5b5061011461066e565b005b60006020528060005260406000206000915054906101000a900460ff1681565b6000600260009054906101000a900473ffffffffffffffffffffffffffffffffffffffff1673ffffffffffffffffffffffffffffffffffffffff16630e67612784846040518363ffffffff1660e01b815260040161019592919061091f565b602060405180830381865afa1580156101b2573d6000803e3d6000fd5b505050506040513d601f19601f820116820180604052508101906101d6919061095d565b905080600160003373ffffffffffffffffffffffffffffffffffffffff1673ffffffffffffffffffffffffffffffffffffffff168152602001908152602001600020600101600082825461022a91906109b9565b9250508190555060008113156102a4578060056102479190610a4d565b600160003373ffffffffffffffffffffffffffffffffffffffff1673ffffffffffffffffffffffffffffffffffffffff16815260200190815260200160002060020160008282546102989190610b64565b92505081905550610355565b6102fc8160056102b49190610a4d565b600160003373ffffffffffffffffffffffffffffffffffffffff1673ffffffffffffffffffffffffffffffffffffffff1681526020019081526020016000206002015461074e565b600160003373ffffffffffffffffffffffffffffffffffffffff1673ffffffffffffffffffffffffffffffffffffffff168152602001908152602001600020600201600082825461034d9190610bba565b925050819055505b505050565b60016020528060005260406000206000915090508060000154908060010154908060020154908060030160009054906101000a900473ffffffffffffffffffffffffffffffffffffffff16905084565b6000803373ffffffffffffffffffffffffffffffffffffffff1673ffffffffffffffffffffffffffffffffffffffff16815260200190815260200160002060009054906101000a900460ff16156104a95760003373ffffffffffffffffffffffffffffffffffffffff163460405161042190610c1f565b60006040518083038185875af1925050503d806000811461045e576040519150601f19603f3d011682016040523d82523d6000602084013e610463565b606091505b50509050806104a7576040517f08c379a000000000000000000000000000000000000000000000000000000000815260040161049e90610c91565b60405180910390fd5b505b6000803373ffffffffffffffffffffffffffffffffffffffff1673ffffffffffffffffffffffffffffffffffffffff16815260200190815260200160002060009054906101000a900460ff1615610535576040517f08c379a000000000000000000000000000000000000000000000000000000000815260040161052c90610cfd565b60405180910390fd5b60016000803373ffffffffffffffffffffffffffffffffffffffff1673ffffffffffffffffffffffffffffffffffffffff16815260200190815260200160002060006101000a81548160ff021916908315150217905550604051806080016040528060058152602001600081526020013481526020013373ffffffffffffffffffffffffffffffffffffffff16815250600160003373ffffffffffffffffffffffffffffffffffffffff1673ffffffffffffffffffffffffffffffffffffffff16815260200190815260200160002060008201518160000155602082015181600101556040820151816002015560608201518160030160006101000a81548173ffffffffffffffffffffffffffffffffffffffff021916908373ffffffffffffffffffffffffffffffffffffffff160217905550905050565b6064600160003373ffffffffffffffffffffffffffffffffffffffff1673ffffffffffffffffffffffffffffffffffffffff16815260200190815260200160002060020154116106f3576040517f08c379a00000000000000000000000000000000000000000000000000000000081526004016106ea90610d69565b60405180910390fd5b60018060003373ffffffffffffffffffffffffffffffffffffffff1673ffffffffffffffffffffffffffffffffffffffff168152602001908152602001600020600101600082825461074591906109b9565b92505081905550565b600081831161075d578161075f565b825b905092915050565b600080fd5b600073ffffffffffffffffffffffffffffffffffffffff82169050919050565b60006107978261076c565b9050919050565b6107a78161078c565b81146107b257600080fd5b50565b6000813590506107c48161079e565b92915050565b6000602082840312156107e0576107df610767565b5b60006107ee848285016107b5565b91505092915050565b60008115159050919050565b61080c816107f7565b82525050565b60006020820190506108276000830184610803565b92915050565b6000819050919050565b6108408161082d565b811461084b57600080fd5b50565b60008135905061085d81610837565b92915050565b6000806040838503121561087a57610879610767565b5b60006108888582860161084e565b9250506020610899858286016107b5565b9150509250929050565b6108ac8161082d565b82525050565b6000819050919050565b6108c5816108b2565b82525050565b6108d48161078c565b82525050565b60006080820190506108ef60008301876108a3565b6108fc60208301866108a3565b61090960408301856108bc565b61091660608301846108cb565b95945050505050565b600060408201905061093460008301856108a3565b61094160208301846108cb565b9392505050565b60008151905061095781610837565b92915050565b60006020828403121561097357610972610767565b5b600061098184828501610948565b91505092915050565b7f4e487b7100000000000000000000000000000000000000000000000000000000600052601160045260246000fd5b60006109c48261082d565b91506109cf8361082d565b9250817f7fffffffffffffffffffffffffffffffffffffffffffffffffffffffffffffff03831360008312151615610a0a57610a0961098a565b5b817f8000000000000000000000000000000000000000000000000000000000000000038312600083121615610a4257610a4161098a565b5b828201905092915050565b6000610a588261082d565b9150610a638361082d565b9250827f7fffffffffffffffffffffffffffffffffffffffffffffffffffffffffffffff0482116000841360008413161615610aa257610aa161098a565b5b817f80000000000000000000000000000000000000000000000000000000000000000583126000841260008413161615610adf57610ade61098a565b5b827f80000000000000000000000000000000000000000000000000000000000000000582126000841360008412161615610b1c57610b1b61098a565b5b827f7fffffffffffffffffffffffffffffffffffffffffffffffffffffffffffffff0582126000841260008412161615610b5957610b5861098a565b5b828202905092915050565b6000610b6f826108b2565b9150610b7a836108b2565b9250827fffffffffffffffffffffffffffffffffffffffffffffffffffffffffffffffff03821115610baf57610bae61098a565b5b828201905092915050565b6000610bc5826108b2565b9150610bd0836108b2565b925082821015610be357610be261098a565b5b828203905092915050565b600081905092915050565b50565b6000610c09600083610bee565b9150610c1482610bf9565b600082019050919050565b6000610c2a82610bfc565b9150819050919050565b600082825260208201905092915050565b7f4661696c656420746f2073656e64204574686572000000000000000000000000600082015250565b6000610c7b601483610c34565b9150610c8682610c45565b602082019050919050565b60006020820190508181036000830152610caa81610c6e565b9050919050565b7f436c69656e7420616c726561647920726567697374657265642e000000000000600082015250565b6000610ce7601a83610c34565b9150610cf282610cb1565b602082019050919050565b60006020820190508181036000830152610d1681610cda565b9050919050565b7f496e73756666696369656e742062616c616e63652e0000000000000000000000600082015250565b6000610d53601583610c34565b9150610d5e82610d1d565b602082019050919050565b60006020820190508181036000830152610d8281610d46565b905091905056fea264697066735822122085d8c7eaa452cfe7a8c0354cb5763e348ebde4c4039dad555b09cd2ff4aae8da64736f6c634300080d0033",
  "immutableReferences": {},
  "source": "//SPDX-License-Identifier: MIT\r\npragma solidity ^0.8.0;\r\n\r\nimport './Credibility.sol';\r\n\r\ncontract ClientRegistration {\r\n    struct Client {\r\n        int credibility;\r\n        int ratings;\r\n        uint balance;\r\n        address owner;\r\n    }\r\n    mapping(address => bool) public registeredClients;\r\n    mapping(address => Client) public clients;\r\n\r\n    Credibility credibility;\r\n\r\n    constructor (address credibilityAddress) {\r\n        credibility = Credibility(credibilityAddress);\r\n    }\r\n\r\n    function addRatings() public {\r\n        require(clients[msg.sender].balance > 100, \"Insufficient balance.\");\r\n        clients[msg.sender].ratings += 1;\r\n    }\r\n\r\n    function max(uint a, uint b) private pure returns (uint) {\r\n        return a > b ? a : b;\r\n    }\r\n    function credUpdate(int score, address fog) public {\r\n        int value = credibility.updateCredibility(score, fog);\r\n        clients[msg.sender].ratings += value;\r\n        if(value > 0) clients[msg.sender].balance += uint(5*value);\r\n        else clients[msg.sender].balance -= max(uint(5*value), clients[msg.sender].balance);\r\n    }\r\n\r\n    function registerClient() public payable {\r\n        if(registeredClients[msg.sender]) {\r\n            (bool success, ) = msg.sender.call{value: msg.value}(\"\");\r\n            require(success, \"Failed to send Ether\");\r\n        }\r\n        require(!registeredClients[msg.sender], \"Client already registered.\");\r\n        registeredClients[msg.sender] = true;\r\n        clients[msg.sender] = Client(5, 0, msg.value, msg.sender);\r\n    }\r\n}",
  "sourcePath": "C:\\Users\\Kartik\\OneDrive\\Desktop\\cs540\\project\\contracts\\ClientRegistration.sol",
  "compiler": {
    "name": "solc",
    "version": "0.8.13+commit.abaa5c0e.Emscripten.clang"
  },
  "schemaVersion": "3.4.16",
  "updatedAt": "2023-11-22T12:53:22.865Z",
  "networkType": "ethereum",
  "devdoc": {
    "kind": "dev",
    "methods": {},
    "version": 1
  },
  "userdoc": {
    "kind": "user",
    "methods": {},
    "version": 1
  }
}