{
  "contractName": "ClientRegistration",
  "abi": [
    {
      "inputs": [
        {
          "internalType": "address",
          "name": "credibilityAddress",
          "type": "address"
        }
      ],
      "stateMutability": "nonpayable",
      "type": "constructor"
    },
    {
      "inputs": [
        {
          "internalType": "address",
          "name": "",
          "type": "address"
        }
      ],
      "name": "clients",
      "outputs": [
        {
          "internalType": "int256",
          "name": "credibility",
          "type": "int256"
        },
        {
          "internalType": "int256",
          "name": "ratings",
          "type": "int256"
        },
        {
          "internalType": "uint256",
          "name": "balance",
          "type": "uint256"
        },
        {
          "internalType": "address",
          "name": "owner",
          "type": "address"
        }
      ],
      "stateMutability": "view",
      "type": "function",
      "constant": true
    },
    {
      "inputs": [
        {
          "internalType": "address",
          "name": "",
          "type": "address"
        }
      ],
      "name": "registeredClients",
      "outputs": [
        {
          "internalType": "bool",
          "name": "",
          "type": "bool"
        }
      ],
      "stateMutability": "view",
      "type": "function",
      "constant": true
    },
    {
      "inputs": [
        {
          "internalType": "address",
          "name": "_address",
          "type": "address"
        }
      ],
      "name": "giveClient",
      "outputs": [
        {
          "components": [
            {
              "internalType": "int256",
              "name": "credibility",
              "type": "int256"
            },
            {
              "internalType": "int256",
              "name": "ratings",
              "type": "int256"
            },
            {
              "internalType": "uint256",
              "name": "balance",
              "type": "uint256"
            },
            {
              "internalType": "address",
              "name": "owner",
              "type": "address"
            }
          ],
          "internalType": "struct ClientRegistration.Client",
          "name": "",
          "type": "tuple"
        }
      ],
      "stateMutability": "view",
      "type": "function",
      "constant": true
    },
    {
      "inputs": [],
      "name": "addRatings",
      "outputs": [],
      "stateMutability": "nonpayable",
      "type": "function"
    },
    {
      "inputs": [],
      "name": "clearRegister",
      "outputs": [],
      "stateMutability": "nonpayable",
      "type": "function"
    },
    {
      "inputs": [
        {
          "internalType": "int256",
          "name": "score",
          "type": "int256"
        },
        {
          "internalType": "address",
          "name": "fog",
          "type": "address"
        }
      ],
      "name": "credUpdate",
      "outputs": [],
      "stateMutability": "nonpayable",
      "type": "function"
    },
    {
      "inputs": [],
      "name": "registerClient",
      "outputs": [],
      "stateMutability": "payable",
      "type": "function",
      "payable": true
    }
  ],
  "bytecode": "0x60806040523480156200001157600080fd5b50604051620011ac380380620011ac8339818101604052810190620000379190620000e9565b80600260006101000a81548173ffffffffffffffffffffffffffffffffffffffff021916908373ffffffffffffffffffffffffffffffffffffffff160217905550506200011b565b600080fd5b600073ffffffffffffffffffffffffffffffffffffffff82169050919050565b6000620000b18262000084565b9050919050565b620000c381620000a4565b8114620000cf57600080fd5b50565b600081519050620000e381620000b8565b92915050565b6000602082840312156200010257620001016200007f565b5b60006200011284828501620000d2565b91505092915050565b611081806200012b6000396000f3fe6080604052600436106100705760003560e01c806361eed2a91161004e57806361eed2a9146100f25780636d9fb28714610132578063db5a5d2a1461013c578063e47120681461015357610070565b80630e18c2901461007557806327759354146100b25780634cebc053146100c9575b600080fd5b34801561008157600080fd5b5061009c600480360381019061009791906109ef565b610190565b6040516100a99190610a37565b60405180910390f35b3480156100be57600080fd5b506100c76101b0565b005b3480156100d557600080fd5b506100f060048036038101906100eb9190610a88565b610251565b005b3480156100fe57600080fd5b50610119600480360381019061011491906109ef565b610475565b6040516101299493929190610aff565b60405180910390f35b61013a6104c5565b005b34801561014857600080fd5b50610151610788565b005b34801561015f57600080fd5b5061017a600480360381019061017591906109ef565b610868565b6040516101879190610bc6565b60405180910390f35b60006020528060005260406000206000915054906101000a900460ff1681565b60008060003373ffffffffffffffffffffffffffffffffffffffff1673ffffffffffffffffffffffffffffffffffffffff16815260200190815260200160002060006101000a81548160ff0219169083151502179055506000600160003373ffffffffffffffffffffffffffffffffffffffff1673ffffffffffffffffffffffffffffffffffffffff16815260200190815260200160002060020181905550565b6000600260009054906101000a900473ffffffffffffffffffffffffffffffffffffffff1673ffffffffffffffffffffffffffffffffffffffff16630e67612784846040518363ffffffff1660e01b81526004016102b0929190610be1565b602060405180830381865afa1580156102cd573d6000803e3d6000fd5b505050506040513d601f19601f820116820180604052508101906102f19190610c1f565b905080600160003373ffffffffffffffffffffffffffffffffffffffff1673ffffffffffffffffffffffffffffffffffffffff16815260200190815260200160002060010160008282546103459190610c7b565b9250508190555060008113156103bf578060056103629190610d0f565b600160003373ffffffffffffffffffffffffffffffffffffffff1673ffffffffffffffffffffffffffffffffffffffff16815260200190815260200160002060020160008282546103b39190610e26565b92505081905550610470565b6104178160056103cf9190610d0f565b600160003373ffffffffffffffffffffffffffffffffffffffff1673ffffffffffffffffffffffffffffffffffffffff16815260200190815260200160002060020154610935565b600160003373ffffffffffffffffffffffffffffffffffffffff1673ffffffffffffffffffffffffffffffffffffffff16815260200190815260200160002060020160008282546104689190610e7c565b925050819055505b505050565b60016020528060005260406000206000915090508060000154908060010154908060020154908060030160009054906101000a900473ffffffffffffffffffffffffffffffffffffffff16905084565b6000803373ffffffffffffffffffffffffffffffffffffffff1673ffffffffffffffffffffffffffffffffffffffff16815260200190815260200160002060009054906101000a900460ff166105c35760003373ffffffffffffffffffffffffffffffffffffffff163460405161053b90610ee1565b60006040518083038185875af1925050503d8060008114610578576040519150601f19603f3d011682016040523d82523d6000602084013e61057d565b606091505b50509050806105c1576040517f08c379a00000000000000000000000000000000000000000000000000000000081526004016105b890610f53565b60405180910390fd5b505b6000803373ffffffffffffffffffffffffffffffffffffffff1673ffffffffffffffffffffffffffffffffffffffff16815260200190815260200160002060009054906101000a900460ff161561064f576040517f08c379a000000000000000000000000000000000000000000000000000000000815260040161064690610fbf565b60405180910390fd5b60016000803373ffffffffffffffffffffffffffffffffffffffff1673ffffffffffffffffffffffffffffffffffffffff16815260200190815260200160002060006101000a81548160ff021916908315150217905550604051806080016040528060058152602001600081526020013481526020013373ffffffffffffffffffffffffffffffffffffffff16815250600160003373ffffffffffffffffffffffffffffffffffffffff1673ffffffffffffffffffffffffffffffffffffffff16815260200190815260200160002060008201518160000155602082015181600101556040820151816002015560608201518160030160006101000a81548173ffffffffffffffffffffffffffffffffffffffff021916908373ffffffffffffffffffffffffffffffffffffffff160217905550905050565b6064600160003373ffffffffffffffffffffffffffffffffffffffff1673ffffffffffffffffffffffffffffffffffffffff168152602001908152602001600020600201541161080d576040517f08c379a00000000000000000000000000000000000000000000000000000000081526004016108049061102b565b60405180910390fd5b60018060003373ffffffffffffffffffffffffffffffffffffffff1673ffffffffffffffffffffffffffffffffffffffff168152602001908152602001600020600101600082825461085f9190610c7b565b92505081905550565b61087061094e565b600160008373ffffffffffffffffffffffffffffffffffffffff1673ffffffffffffffffffffffffffffffffffffffff1681526020019081526020016000206040518060800160405290816000820154815260200160018201548152602001600282015481526020016003820160009054906101000a900473ffffffffffffffffffffffffffffffffffffffff1673ffffffffffffffffffffffffffffffffffffffff1673ffffffffffffffffffffffffffffffffffffffff16815250509050919050565b60008183116109445781610946565b825b905092915050565b6040518060800160405280600081526020016000815260200160008152602001600073ffffffffffffffffffffffffffffffffffffffff1681525090565b600080fd5b600073ffffffffffffffffffffffffffffffffffffffff82169050919050565b60006109bc82610991565b9050919050565b6109cc816109b1565b81146109d757600080fd5b50565b6000813590506109e9816109c3565b92915050565b600060208284031215610a0557610a0461098c565b5b6000610a13848285016109da565b91505092915050565b60008115159050919050565b610a3181610a1c565b82525050565b6000602082019050610a4c6000830184610a28565b92915050565b6000819050919050565b610a6581610a52565b8114610a7057600080fd5b50565b600081359050610a8281610a5c565b92915050565b60008060408385031215610a9f57610a9e61098c565b5b6000610aad85828601610a73565b9250506020610abe858286016109da565b9150509250929050565b610ad181610a52565b82525050565b6000819050919050565b610aea81610ad7565b82525050565b610af9816109b1565b82525050565b6000608082019050610b146000830187610ac8565b610b216020830186610ac8565b610b2e6040830185610ae1565b610b3b6060830184610af0565b95945050505050565b610b4d81610a52565b82525050565b610b5c81610ad7565b82525050565b610b6b816109b1565b82525050565b608082016000820151610b876000850182610b44565b506020820151610b9a6020850182610b44565b506040820151610bad6040850182610b53565b506060820151610bc06060850182610b62565b50505050565b6000608082019050610bdb6000830184610b71565b92915050565b6000604082019050610bf66000830185610ac8565b610c036020830184610af0565b9392505050565b600081519050610c1981610a5c565b92915050565b600060208284031215610c3557610c3461098c565b5b6000610c4384828501610c0a565b91505092915050565b7f4e487b7100000000000000000000000000000000000000000000000000000000600052601160045260246000fd5b6000610c8682610a52565b9150610c9183610a52565b9250817f7fffffffffffffffffffffffffffffffffffffffffffffffffffffffffffffff03831360008312151615610ccc57610ccb610c4c565b5b817f8000000000000000000000000000000000000000000000000000000000000000038312600083121615610d0457610d03610c4c565b5b828201905092915050565b6000610d1a82610a52565b9150610d2583610a52565b9250827f7fffffffffffffffffffffffffffffffffffffffffffffffffffffffffffffff0482116000841360008413161615610d6457610d63610c4c565b5b817f80000000000000000000000000000000000000000000000000000000000000000583126000841260008413161615610da157610da0610c4c565b5b827f80000000000000000000000000000000000000000000000000000000000000000582126000841360008412161615610dde57610ddd610c4c565b5b827f7fffffffffffffffffffffffffffffffffffffffffffffffffffffffffffffff0582126000841260008412161615610e1b57610e1a610c4c565b5b828202905092915050565b6000610e3182610ad7565b9150610e3c83610ad7565b9250827fffffffffffffffffffffffffffffffffffffffffffffffffffffffffffffffff03821115610e7157610e70610c4c565b5b828201905092915050565b6000610e8782610ad7565b9150610e9283610ad7565b925082821015610ea557610ea4610c4c565b5b828203905092915050565b600081905092915050565b50565b6000610ecb600083610eb0565b9150610ed682610ebb565b600082019050919050565b6000610eec82610ebe565b9150819050919050565b600082825260208201905092915050565b7f4661696c656420746f2073656e64204574686572000000000000000000000000600082015250565b6000610f3d601483610ef6565b9150610f4882610f07565b602082019050919050565b60006020820190508181036000830152610f6c81610f30565b9050919050565b7f436c69656e7420616c726561647920726567697374657265642e000000000000600082015250565b6000610fa9601a83610ef6565b9150610fb482610f73565b602082019050919050565b60006020820190508181036000830152610fd881610f9c565b9050919050565b7f496e73756666696369656e742062616c616e63652e0000000000000000000000600082015250565b6000611015601583610ef6565b915061102082610fdf565b602082019050919050565b6000602082019050818103600083015261104481611008565b905091905056fea2646970667358221220dd167c879a1d79deac4472dc9e9dd6f06cad42bee6caaab9fe9b358bdc19f95064736f6c634300080d0033",
  "immutableReferences": {},
  "source": "//SPDX-License-Identifier: MIT\r\npragma solidity ^0.8.0;\r\n\r\nimport './Credibility.sol';\r\n\r\ncontract ClientRegistration {\r\n    struct Client {\r\n        int credibility;\r\n        int ratings;\r\n        uint balance;\r\n        address owner;\r\n    }\r\n    mapping(address => bool) public registeredClients;\r\n    mapping(address => Client) public clients;\r\n\r\n    Credibility credibility;\r\n\r\n    constructor (address credibilityAddress) {\r\n        credibility = Credibility(credibilityAddress);\r\n    }\r\n\r\n    function giveClient(address _address) public view returns (Client memory) {\r\n        return clients[_address];\r\n    }\r\n\r\n    function addRatings() public {\r\n        require(clients[msg.sender].balance > 100, \"Insufficient balance.\");\r\n        clients[msg.sender].ratings += 1;\r\n    }\r\n\r\n    function clearRegister() public {\r\n        registeredClients[msg.sender] = false;\r\n        clients[msg.sender].balance = 0;\r\n    }\r\n\r\n    function max(uint a, uint b) private pure returns (uint) {\r\n        return a > b ? a : b;\r\n    }\r\n    function credUpdate(int score, address fog) public {\r\n        int value = credibility.updateCredibility(score, fog);\r\n        clients[msg.sender].ratings += value;\r\n        if(value > 0) clients[msg.sender].balance += uint(5*value);\r\n        else clients[msg.sender].balance -= max(uint(5*value), clients[msg.sender].balance);\r\n    }\r\n\r\n    function registerClient() external payable {\r\n        if(!registeredClients[msg.sender]) {\r\n            (bool success, ) = msg.sender.call{value: msg.value}(\"\");\r\n            require(success, \"Failed to send Ether\");\r\n        }\r\n        require(!registeredClients[msg.sender], \"Client already registered.\");\r\n        registeredClients[msg.sender] = true;\r\n        clients[msg.sender] = Client(5, 0, msg.value, msg.sender);\r\n    }\r\n}",
  "sourcePath": "C:\\Users\\Kartik\\OneDrive\\Desktop\\cs540\\project\\contracts\\ClientRegistration.sol",
  "compiler": {
    "name": "solc",
    "version": "0.8.13+commit.abaa5c0e.Emscripten.clang"
  },
  "schemaVersion": "3.4.16",
  "updatedAt": "2023-11-23T17:03:03.806Z",
  "networkType": "ethereum",
  "devdoc": {
    "kind": "dev",
    "methods": {},
    "version": 1
  },
  "userdoc": {
    "kind": "user",
    "methods": {},
    "version": 1
  }
}