{
  "contractName": "Credibility",
  "abi": [
    {
      "inputs": [
        {
          "internalType": "address",
          "name": "clientRegistrationAddress",
          "type": "address"
        }
      ],
      "stateMutability": "nonpayable",
      "type": "constructor"
    },
    {
      "inputs": [
        {
          "internalType": "address",
          "name": "",
          "type": "address"
        }
      ],
      "name": "credibilityScores",
      "outputs": [
        {
          "internalType": "uint256",
          "name": "",
          "type": "uint256"
        }
      ],
      "stateMutability": "view",
      "type": "function",
      "constant": true
    },
    {
      "inputs": [
        {
          "internalType": "address",
          "name": "client",
          "type": "address"
        },
        {
          "internalType": "uint256",
          "name": "score",
          "type": "uint256"
        }
      ],
      "name": "updateCredibility",
      "outputs": [],
      "stateMutability": "nonpayable",
      "type": "function"
    }
  ],
  "bytecode": "0x608060405234801561001057600080fd5b50604051610549380380610549833981810160405281019061003291906100db565b806000806101000a81548173ffffffffffffffffffffffffffffffffffffffff021916908373ffffffffffffffffffffffffffffffffffffffff16021790555050610108565b600080fd5b600073ffffffffffffffffffffffffffffffffffffffff82169050919050565b60006100a88261007d565b9050919050565b6100b88161009d565b81146100c357600080fd5b50565b6000815190506100d5816100af565b92915050565b6000602082840312156100f1576100f0610078565b5b60006100ff848285016100c6565b91505092915050565b610432806101176000396000f3fe608060405234801561001057600080fd5b50600436106100365760003560e01c80637d54f2a51461003b578063f6322a5f1461006b575b600080fd5b61005560048036038101906100509190610223565b610087565b6040516100629190610269565b60405180910390f35b610085600480360381019061008091906102b0565b61009f565b005b60016020528060005260406000206000915090505481565b60008054906101000a900473ffffffffffffffffffffffffffffffffffffffff1673ffffffffffffffffffffffffffffffffffffffff16630e18c290836040518263ffffffff1660e01b81526004016100f891906102ff565b602060405180830381865afa158015610115573d6000803e3d6000fd5b505050506040513d601f19601f820116820180604052508101906101399190610352565b610178576040517f08c379a000000000000000000000000000000000000000000000000000000000815260040161016f906103dc565b60405180910390fd5b80600160008473ffffffffffffffffffffffffffffffffffffffff1673ffffffffffffffffffffffffffffffffffffffff168152602001908152602001600020819055505050565b600080fd5b600073ffffffffffffffffffffffffffffffffffffffff82169050919050565b60006101f0826101c5565b9050919050565b610200816101e5565b811461020b57600080fd5b50565b60008135905061021d816101f7565b92915050565b600060208284031215610239576102386101c0565b5b60006102478482850161020e565b91505092915050565b6000819050919050565b61026381610250565b82525050565b600060208201905061027e600083018461025a565b92915050565b61028d81610250565b811461029857600080fd5b50565b6000813590506102aa81610284565b92915050565b600080604083850312156102c7576102c66101c0565b5b60006102d58582860161020e565b92505060206102e68582860161029b565b9150509250929050565b6102f9816101e5565b82525050565b600060208201905061031460008301846102f0565b92915050565b60008115159050919050565b61032f8161031a565b811461033a57600080fd5b50565b60008151905061034c81610326565b92915050565b600060208284031215610368576103676101c0565b5b60006103768482850161033d565b91505092915050565b600082825260208201905092915050565b7f436c69656e74206e6f7420726567697374657265642e00000000000000000000600082015250565b60006103c660168361037f565b91506103d182610390565b602082019050919050565b600060208201905081810360008301526103f5816103b9565b905091905056fea2646970667358221220048aea231d84704a2d1aee4c2c5a2d523f6531282534c88e70a3afc2e819cbec64736f6c634300080d0033",
  "immutableReferences": {},
  "source": "//SPDX-License-Identifier: MIT\r\npragma solidity ^0.8.0;\r\n\r\nimport './ClientRegistration.sol';\r\n\r\ncontract Credibility {\r\n    ClientRegistration clientRegistration;\r\n    mapping(address => uint) public credibilityScores;\r\n\r\n    constructor(address clientRegistrationAddress) {\r\n        clientRegistration = ClientRegistration(clientRegistrationAddress);\r\n    }\r\n\r\n    function updateCredibility(address client, uint score) public {\r\n        require(clientRegistration.registeredClients(client), \"Client not registered.\");\r\n        credibilityScores[client] = score; // Simplified credibility update\r\n    }\r\n}",
  "sourcePath": "C:\\Users\\Kartik\\OneDrive\\Desktop\\cs540\\project\\contracts\\Credibility.sol",
  "compiler": {
    "name": "solc",
    "version": "0.8.13+commit.abaa5c0e.Emscripten.clang"
  },
  "schemaVersion": "3.4.16",
  "updatedAt": "2023-11-19T10:21:31.997Z",
  "networkType": "ethereum",
  "devdoc": {
    "kind": "dev",
    "methods": {},
    "version": 1
  },
  "userdoc": {
    "kind": "user",
    "methods": {},
    "version": 1
  }
}