{
  "contractName": "FogNodeManagement",
  "abi": [
    {
      "inputs": [
        {
          "internalType": "address",
          "name": "",
          "type": "address"
        }
      ],
      "name": "fogNodes",
      "outputs": [
        {
          "internalType": "address",
          "name": "owner",
          "type": "address"
        },
        {
          "internalType": "string",
          "name": "ip",
          "type": "string"
        },
        {
          "internalType": "string",
          "name": "location",
          "type": "string"
        },
        {
          "internalType": "uint256",
          "name": "processingCapability",
          "type": "uint256"
        }
      ],
      "stateMutability": "view",
      "type": "function",
      "constant": true
    },
    {
      "inputs": [
        {
          "internalType": "address",
          "name": "_address",
          "type": "address"
        }
      ],
      "name": "givefogNodes",
      "outputs": [
        {
          "components": [
            {
              "internalType": "address",
              "name": "owner",
              "type": "address"
            },
            {
              "internalType": "string",
              "name": "ip",
              "type": "string"
            },
            {
              "internalType": "string",
              "name": "location",
              "type": "string"
            },
            {
              "internalType": "uint256",
              "name": "processingCapability",
              "type": "uint256"
            }
          ],
          "internalType": "struct FogNodeManagement.FogNode",
          "name": "",
          "type": "tuple"
        }
      ],
      "stateMutability": "view",
      "type": "function",
      "constant": true
    },
    {
      "inputs": [
        {
          "internalType": "string",
          "name": "ip",
          "type": "string"
        },
        {
          "internalType": "string",
          "name": "location",
          "type": "string"
        },
        {
          "internalType": "uint256",
          "name": "processingCapability",
          "type": "uint256"
        }
      ],
      "name": "registerFogNode",
      "outputs": [],
      "stateMutability": "nonpayable",
      "type": "function"
    }
  ],
  "bytecode": "0x608060405234801561001057600080fd5b50610b13806100206000396000f3fe608060405234801561001057600080fd5b50600436106100415760003560e01c80630a2d518a14610046578063a96fadc514610079578063acc93789146100a9575b600080fd5b610060600480360381019061005b919061065c565b6100c5565b604051610070949392919061074a565b60405180910390f35b610093600480360381019061008e919061065c565b610225565b6040516100a0919061086f565b60405180910390f35b6100c360048036038101906100be91906109f2565b610401565b005b60006020528060005260406000206000915090508060000160009054906101000a900473ffffffffffffffffffffffffffffffffffffffff169080600101805461010e90610aac565b80601f016020809104026020016040519081016040528092919081815260200182805461013a90610aac565b80156101875780601f1061015c57610100808354040283529160200191610187565b820191906000526020600020905b81548152906001019060200180831161016a57829003601f168201915b50505050509080600201805461019c90610aac565b80601f01602080910402602001604051908101604052809291908181526020018280546101c890610aac565b80156102155780601f106101ea57610100808354040283529160200191610215565b820191906000526020600020905b8154815290600101906020018083116101f857829003601f168201915b5050505050908060030154905084565b61022d610509565b6000808373ffffffffffffffffffffffffffffffffffffffff1673ffffffffffffffffffffffffffffffffffffffff1681526020019081526020016000206040518060800160405290816000820160009054906101000a900473ffffffffffffffffffffffffffffffffffffffff1673ffffffffffffffffffffffffffffffffffffffff1673ffffffffffffffffffffffffffffffffffffffff1681526020016001820180546102dc90610aac565b80601f016020809104026020016040519081016040528092919081815260200182805461030890610aac565b80156103555780601f1061032a57610100808354040283529160200191610355565b820191906000526020600020905b81548152906001019060200180831161033857829003601f168201915b5050505050815260200160028201805461036e90610aac565b80601f016020809104026020016040519081016040528092919081815260200182805461039a90610aac565b80156103e75780601f106103bc576101008083540402835291602001916103e7565b820191906000526020600020905b8154815290600101906020018083116103ca57829003601f168201915b505050505081526020016003820154815250509050919050565b60405180608001604052803373ffffffffffffffffffffffffffffffffffffffff168152602001848152602001838152602001828152506000803373ffffffffffffffffffffffffffffffffffffffff1673ffffffffffffffffffffffffffffffffffffffff16815260200190815260200160002060008201518160000160006101000a81548173ffffffffffffffffffffffffffffffffffffffff021916908373ffffffffffffffffffffffffffffffffffffffff16021790555060208201518160010190805190602001906104d9929190610547565b5060408201518160020190805190602001906104f6929190610547565b5060608201518160030155905050505050565b6040518060800160405280600073ffffffffffffffffffffffffffffffffffffffff1681526020016060815260200160608152602001600081525090565b82805461055390610aac565b90600052602060002090601f01602090048101928261057557600085556105bc565b82601f1061058e57805160ff19168380011785556105bc565b828001600101855582156105bc579182015b828111156105bb5782518255916020019190600101906105a0565b5b5090506105c991906105cd565b5090565b5b808211156105e65760008160009055506001016105ce565b5090565b6000604051905090565b600080fd5b600080fd5b600073ffffffffffffffffffffffffffffffffffffffff82169050919050565b6000610629826105fe565b9050919050565b6106398161061e565b811461064457600080fd5b50565b60008135905061065681610630565b92915050565b600060208284031215610672576106716105f4565b5b600061068084828501610647565b91505092915050565b6106928161061e565b82525050565b600081519050919050565b600082825260208201905092915050565b60005b838110156106d25780820151818401526020810190506106b7565b838111156106e1576000848401525b50505050565b6000601f19601f8301169050919050565b600061070382610698565b61070d81856106a3565b935061071d8185602086016106b4565b610726816106e7565b840191505092915050565b6000819050919050565b61074481610731565b82525050565b600060808201905061075f6000830187610689565b818103602083015261077181866106f8565b9050818103604083015261078581856106f8565b9050610794606083018461073b565b95945050505050565b6107a68161061e565b82525050565b600082825260208201905092915050565b60006107c882610698565b6107d281856107ac565b93506107e28185602086016106b4565b6107eb816106e7565b840191505092915050565b6107ff81610731565b82525050565b600060808301600083015161081d600086018261079d565b506020830151848203602086015261083582826107bd565b9150506040830151848203604086015261084f82826107bd565b915050606083015161086460608601826107f6565b508091505092915050565b600060208201905081810360008301526108898184610805565b905092915050565b600080fd5b600080fd5b7f4e487b7100000000000000000000000000000000000000000000000000000000600052604160045260246000fd5b6108d3826106e7565b810181811067ffffffffffffffff821117156108f2576108f161089b565b5b80604052505050565b60006109056105ea565b905061091182826108ca565b919050565b600067ffffffffffffffff8211156109315761093061089b565b5b61093a826106e7565b9050602081019050919050565b82818337600083830152505050565b600061096961096484610916565b6108fb565b90508281526020810184848401111561098557610984610896565b5b610990848285610947565b509392505050565b600082601f8301126109ad576109ac610891565b5b81356109bd848260208601610956565b91505092915050565b6109cf81610731565b81146109da57600080fd5b50565b6000813590506109ec816109c6565b92915050565b600080600060608486031215610a0b57610a0a6105f4565b5b600084013567ffffffffffffffff811115610a2957610a286105f9565b5b610a3586828701610998565b935050602084013567ffffffffffffffff811115610a5657610a556105f9565b5b610a6286828701610998565b9250506040610a73868287016109dd565b9150509250925092565b7f4e487b7100000000000000000000000000000000000000000000000000000000600052602260045260246000fd5b60006002820490506001821680610ac457607f821691505b602082108103610ad757610ad6610a7d565b5b5091905056fea2646970667358221220fd2e2102c41eb2c821d43a5b22bc7c8a57b5cf36e110bb84ec84c602cd45a48564736f6c634300080d0033",
  "immutableReferences": {},
  "source": "//SPDX-License-Identifier: MIT\r\npragma solidity ^0.8.0;\r\n\r\ncontract FogNodeManagement{\r\n    struct FogNode {\r\n        address owner;\r\n        string ip;\r\n        string location;\r\n        uint processingCapability;\r\n    }\r\n    mapping(address => FogNode) public fogNodes;\r\n    function givefogNodes(address _address) public view returns (FogNode memory) {\r\n        return fogNodes[_address];\r\n    }\r\n    function registerFogNode(string memory ip, string memory location, uint processingCapability) public {\r\n        fogNodes[msg.sender] = FogNode(msg.sender, ip, location, processingCapability);\r\n    }\r\n\r\n}",
  "sourcePath": "C:\\Users\\Kartik\\OneDrive\\Desktop\\cs540\\project\\contracts\\FogNodeManagement.sol",
  "compiler": {
    "name": "solc",
    "version": "0.8.13+commit.abaa5c0e.Emscripten.clang"
  },
  "schemaVersion": "3.4.16",
  "updatedAt": "2023-11-19T10:21:31.983Z",
  "networkType": "ethereum",
  "devdoc": {
    "kind": "dev",
    "methods": {},
    "version": 1
  },
  "userdoc": {
    "kind": "user",
    "methods": {},
    "version": 1
  }
}