{
  "contractName": "FogNodeManagement",
  "abi": [
    {
      "inputs": [
        {
          "internalType": "address",
          "name": "_address",
          "type": "address"
        }
      ],
      "name": "givefogNodes",
      "outputs": [
        {
          "components": [
            {
              "internalType": "address",
              "name": "owner",
              "type": "address"
            },
            {
              "internalType": "string",
              "name": "location",
              "type": "string"
            },
            {
              "internalType": "uint256",
              "name": "processingCapability",
              "type": "uint256"
            },
            {
              "internalType": "int256[]",
              "name": "ratings",
              "type": "int256[]"
            },
            {
              "internalType": "int256[]",
              "name": "creds",
              "type": "int256[]"
            },
            {
              "internalType": "int256",
              "name": "credsum",
              "type": "int256"
            },
            {
              "internalType": "int256",
              "name": "rating",
              "type": "int256"
            }
          ],
          "internalType": "struct FogNodeManagement.FogNode",
          "name": "",
          "type": "tuple"
        }
      ],
      "stateMutability": "view",
      "type": "function",
      "constant": true
    },
    {
      "inputs": [
        {
          "internalType": "address",
          "name": "_address",
          "type": "address"
        }
      ],
      "name": "giveThreshold",
      "outputs": [
        {
          "internalType": "int256",
          "name": "",
          "type": "int256"
        }
      ],
      "stateMutability": "view",
      "type": "function",
      "constant": true
    },
    {
      "inputs": [
        {
          "internalType": "address",
          "name": "_address",
          "type": "address"
        },
        {
          "internalType": "int256",
          "name": "rating",
          "type": "int256"
        },
        {
          "internalType": "int256",
          "name": "cred",
          "type": "int256"
        }
      ],
      "name": "addRating",
      "outputs": [],
      "stateMutability": "nonpayable",
      "type": "function"
    },
    {
      "inputs": [
        {
          "internalType": "address",
          "name": "_address",
          "type": "address"
        }
      ],
      "name": "modifyRating",
      "outputs": [],
      "stateMutability": "nonpayable",
      "type": "function"
    },
    {
      "inputs": [
        {
          "internalType": "string",
          "name": "location",
          "type": "string"
        },
        {
          "internalType": "uint256",
          "name": "processingCapability",
          "type": "uint256"
        },
        {
          "internalType": "int256",
          "name": "rating",
          "type": "int256"
        }
      ],
      "name": "registerFogNode",
      "outputs": [],
      "stateMutability": "nonpayable",
      "type": "function"
    }
  ],
  "bytecode": "0x608060405234801561001057600080fd5b506113ee806100206000396000f3fe608060405234801561001057600080fd5b50600436106100575760003560e01c806307889dda1461005c5780632ca5fa881461007857806346d2499514610094578063a96fadc5146100c4578063eef4a9e4146100f4575b600080fd5b61007660048036038101906100719190610cc7565b610110565b005b610092600480360381019061008d9190610d94565b6102f8565b005b6100ae60048036038101906100a99190610d94565b610591565b6040516100bb9190610dd0565b60405180910390f35b6100de60048036038101906100d99190610d94565b6106be565b6040516100eb9190610ff9565b60405180910390f35b61010e6004803603810190610109919061101b565b6108cc565b005b60008067ffffffffffffffff81111561012c5761012b610b30565b5b60405190808252806020026020018201604052801561015a5781602001602082028036833780820191505090505b50905060008067ffffffffffffffff81111561017957610178610b30565b5b6040519080825280602002602001820160405280156101a75781602001602082028036833780820191505090505b5090506040518060e001604052803373ffffffffffffffffffffffffffffffffffffffff16815260200186815260200185815260200183815260200182815260200160008152602001848152506000803373ffffffffffffffffffffffffffffffffffffffff1673ffffffffffffffffffffffffffffffffffffffff16815260200190815260200160002060008201518160000160006101000a81548173ffffffffffffffffffffffffffffffffffffffff021916908373ffffffffffffffffffffffffffffffffffffffff16021790555060208201518160010190805190602001906102959291906109a1565b506040820151816002015560608201518160030190805190602001906102bc929190610a27565b5060808201518160040190805190602001906102d9929190610a27565b5060a0820151816005015560c082015181600601559050505050505050565b6000805b6000808473ffffffffffffffffffffffffffffffffffffffff1673ffffffffffffffffffffffffffffffffffffffff1681526020019081526020016000206003018054905081101561042e576000808473ffffffffffffffffffffffffffffffffffffffff1673ffffffffffffffffffffffffffffffffffffffff168152602001908152602001600020600401818154811061039b5761039a61106e565b5b90600052602060002001546000808573ffffffffffffffffffffffffffffffffffffffff1673ffffffffffffffffffffffffffffffffffffffff16815260200190815260200160002060030182815481106103f9576103f861106e565b5b906000526020600020015461040e91906110cc565b8261041991906111e3565b9150808061042690611277565b9150506102fc565b50806000808473ffffffffffffffffffffffffffffffffffffffff1673ffffffffffffffffffffffffffffffffffffffff168152602001908152602001600020600601819055506000905060005b6000808473ffffffffffffffffffffffffffffffffffffffff1673ffffffffffffffffffffffffffffffffffffffff16815260200190815260200160002060040180549050811015610546576000808473ffffffffffffffffffffffffffffffffffffffff1673ffffffffffffffffffffffffffffffffffffffff168152602001908152602001600020600401818154811061051b5761051a61106e565b5b90600052602060002001548261053191906111e3565b9150808061053e90611277565b91505061047c565b50806000808473ffffffffffffffffffffffffffffffffffffffff1673ffffffffffffffffffffffffffffffffffffffff168152602001908152602001600020600501819055505050565b6000806000905060005b6000808573ffffffffffffffffffffffffffffffffffffffff1673ffffffffffffffffffffffffffffffffffffffff16815260200190815260200160002060030180549050811015610665576000808573ffffffffffffffffffffffffffffffffffffffff1673ffffffffffffffffffffffffffffffffffffffff168152602001908152602001600020600301818154811061063a5761063961106e565b5b90600052602060002001548261065091906111e3565b9150808061065d90611277565b91505061059b565b506000808473ffffffffffffffffffffffffffffffffffffffff1673ffffffffffffffffffffffffffffffffffffffff16815260200190815260200160002060030180549050816106b691906112ee565b915050919050565b6106c6610a74565b6000808373ffffffffffffffffffffffffffffffffffffffff1673ffffffffffffffffffffffffffffffffffffffff1681526020019081526020016000206040518060e00160405290816000820160009054906101000a900473ffffffffffffffffffffffffffffffffffffffff1673ffffffffffffffffffffffffffffffffffffffff1673ffffffffffffffffffffffffffffffffffffffff16815260200160018201805461077590611387565b80601f01602080910402602001604051908101604052809291908181526020018280546107a190611387565b80156107ee5780601f106107c3576101008083540402835291602001916107ee565b820191906000526020600020905b8154815290600101906020018083116107d157829003601f168201915b50505050508152602001600282015481526020016003820180548060200260200160405190810160405280929190818152602001828054801561085057602002820191906000526020600020905b81548152602001906001019080831161083c575b50505050508152602001600482018054806020026020016040519081016040528092919081815260200182805480156108a857602002820191906000526020600020905b815481526020019060010190808311610894575b50505050508152602001600582015481526020016006820154815250509050919050565b6000808473ffffffffffffffffffffffffffffffffffffffff1673ffffffffffffffffffffffffffffffffffffffff1681526020019081526020016000206003018290806001815401808255809150506001900390600052602060002001600090919091909150556000808473ffffffffffffffffffffffffffffffffffffffff1673ffffffffffffffffffffffffffffffffffffffff168152602001908152602001600020600401819080600181540180825580915050600190039060005260206000200160009091909190915055505050565b8280546109ad90611387565b90600052602060002090601f0160209004810192826109cf5760008555610a16565b82601f106109e857805160ff1916838001178555610a16565b82800160010185558215610a16579182015b82811115610a155782518255916020019190600101906109fa565b5b509050610a239190610ac7565b5090565b828054828255906000526020600020908101928215610a63579160200282015b82811115610a62578251825591602001919060010190610a47565b5b509050610a709190610ae4565b5090565b6040518060e00160405280600073ffffffffffffffffffffffffffffffffffffffff1681526020016060815260200160008152602001606081526020016060815260200160008152602001600081525090565b5b80821115610ae0576000816000905550600101610ac8565b5090565b5b80821115610afd576000816000905550600101610ae5565b5090565b6000604051905090565b600080fd5b600080fd5b600080fd5b600080fd5b6000601f19601f8301169050919050565b7f4e487b7100000000000000000000000000000000000000000000000000000000600052604160045260246000fd5b610b6882610b1f565b810181811067ffffffffffffffff82111715610b8757610b86610b30565b5b80604052505050565b6000610b9a610b01565b9050610ba68282610b5f565b919050565b600067ffffffffffffffff821115610bc657610bc5610b30565b5b610bcf82610b1f565b9050602081019050919050565b82818337600083830152505050565b6000610bfe610bf984610bab565b610b90565b905082815260208101848484011115610c1a57610c19610b1a565b5b610c25848285610bdc565b509392505050565b600082601f830112610c4257610c41610b15565b5b8135610c52848260208601610beb565b91505092915050565b6000819050919050565b610c6e81610c5b565b8114610c7957600080fd5b50565b600081359050610c8b81610c65565b92915050565b6000819050919050565b610ca481610c91565b8114610caf57600080fd5b50565b600081359050610cc181610c9b565b92915050565b600080600060608486031215610ce057610cdf610b0b565b5b600084013567ffffffffffffffff811115610cfe57610cfd610b10565b5b610d0a86828701610c2d565b9350506020610d1b86828701610c7c565b9250506040610d2c86828701610cb2565b9150509250925092565b600073ffffffffffffffffffffffffffffffffffffffff82169050919050565b6000610d6182610d36565b9050919050565b610d7181610d56565b8114610d7c57600080fd5b50565b600081359050610d8e81610d68565b92915050565b600060208284031215610daa57610da9610b0b565b5b6000610db884828501610d7f565b91505092915050565b610dca81610c91565b82525050565b6000602082019050610de56000830184610dc1565b92915050565b610df481610d56565b82525050565b600081519050919050565b600082825260208201905092915050565b60005b83811015610e34578082015181840152602081019050610e19565b83811115610e43576000848401525b50505050565b6000610e5482610dfa565b610e5e8185610e05565b9350610e6e818560208601610e16565b610e7781610b1f565b840191505092915050565b610e8b81610c5b565b82525050565b600081519050919050565b600082825260208201905092915050565b6000819050602082019050919050565b610ec681610c91565b82525050565b6000610ed88383610ebd565b60208301905092915050565b6000602082019050919050565b6000610efc82610e91565b610f068185610e9c565b9350610f1183610ead565b8060005b83811015610f42578151610f298882610ecc565b9750610f3483610ee4565b925050600181019050610f15565b5085935050505092915050565b600060e083016000830151610f676000860182610deb565b5060208301518482036020860152610f7f8282610e49565b9150506040830151610f946040860182610e82565b5060608301518482036060860152610fac8282610ef1565b91505060808301518482036080860152610fc68282610ef1565b91505060a0830151610fdb60a0860182610ebd565b5060c0830151610fee60c0860182610ebd565b508091505092915050565b600060208201905081810360008301526110138184610f4f565b905092915050565b60008060006060848603121561103457611033610b0b565b5b600061104286828701610d7f565b935050602061105386828701610cb2565b925050604061106486828701610cb2565b9150509250925092565b7f4e487b7100000000000000000000000000000000000000000000000000000000600052603260045260246000fd5b7f4e487b7100000000000000000000000000000000000000000000000000000000600052601160045260246000fd5b60006110d782610c91565b91506110e283610c91565b9250827f7fffffffffffffffffffffffffffffffffffffffffffffffffffffffffffffff04821160008413600084131616156111215761112061109d565b5b817f8000000000000000000000000000000000000000000000000000000000000000058312600084126000841316161561115e5761115d61109d565b5b827f8000000000000000000000000000000000000000000000000000000000000000058212600084136000841216161561119b5761119a61109d565b5b827f7fffffffffffffffffffffffffffffffffffffffffffffffffffffffffffffff05821260008412600084121616156111d8576111d761109d565b5b828202905092915050565b60006111ee82610c91565b91506111f983610c91565b9250817f7fffffffffffffffffffffffffffffffffffffffffffffffffffffffffffffff038313600083121516156112345761123361109d565b5b817f800000000000000000000000000000000000000000000000000000000000000003831260008312161561126c5761126b61109d565b5b828201905092915050565b600061128282610c5b565b91507fffffffffffffffffffffffffffffffffffffffffffffffffffffffffffffffff82036112b4576112b361109d565b5b600182019050919050565b7f4e487b7100000000000000000000000000000000000000000000000000000000600052601260045260246000fd5b60006112f982610c91565b915061130483610c91565b925082611314576113136112bf565b5b600160000383147f80000000000000000000000000000000000000000000000000000000000000008314161561134d5761134c61109d565b5b828205905092915050565b7f4e487b7100000000000000000000000000000000000000000000000000000000600052602260045260246000fd5b6000600282049050600182168061139f57607f821691505b6020821081036113b2576113b1611358565b5b5091905056fea264697066735822122050b04d759b1f8ac73e5431a190202401e59606592bfa805763fac8eeb7c8afa064736f6c634300080d0033",
  "immutableReferences": {},
  "source": "//SPDX-License-Identifier: MIT\r\npragma solidity ^0.8.0;\r\n\r\ncontract FogNodeManagement{\r\n    struct FogNode {\r\n        address owner;\r\n        string location;\r\n        uint processingCapability;\r\n        int[] ratings;\r\n        int[] creds;\r\n        int credsum;\r\n        int rating;\r\n    }\r\n\r\n    mapping(address => FogNode) private fogNodes;\r\n\r\n    function givefogNodes(address _address) public view returns (FogNode memory) {\r\n        return fogNodes[_address];\r\n    }\r\n\r\n    function giveThreshold(address _address) public view returns (int) {\r\n        int sum = 0;\r\n        for(uint i = 0; i < fogNodes[_address].ratings.length; i++){\r\n            sum += fogNodes[_address].ratings[i];\r\n        }\r\n        return sum / int(fogNodes[_address].ratings.length);\r\n    }\r\n\r\n    function addRating(address _address, int rating, int cred) public {\r\n        fogNodes[_address].ratings.push(rating);\r\n        fogNodes[_address].creds.push(cred);\r\n    }\r\n\r\n    function modifyRating(address _address) public {\r\n        int sum = 0;\r\n        for(uint i = 0; i < fogNodes[_address].ratings.length; i++){\r\n            sum += fogNodes[_address].ratings[i] * fogNodes[_address].creds[i];\r\n        }\r\n        fogNodes[_address].rating = sum;\r\n        sum = 0;\r\n        for(uint i = 0; i < fogNodes[_address].creds.length; i++){\r\n            sum += fogNodes[_address].creds[i];\r\n        }\r\n        fogNodes[_address].credsum = sum;\r\n    }\r\n\r\n    function registerFogNode(string memory location, uint processingCapability, int rating) public {\r\n        int[] memory empty = new int[](0);\r\n        int[] memory empty2 = new int[](0);\r\n        fogNodes[msg.sender] = FogNode(msg.sender, location, processingCapability, empty, empty2, 0, rating);\r\n    }\r\n\r\n}",
  "sourcePath": "C:\\Users\\Kartik\\OneDrive\\Desktop\\cs540\\project\\contracts\\FogNodeManagement.sol",
  "compiler": {
    "name": "solc",
    "version": "0.8.13+commit.abaa5c0e.Emscripten.clang"
  },
  "schemaVersion": "3.4.16",
  "updatedAt": "2023-11-23T17:03:03.496Z",
  "networkType": "ethereum",
  "devdoc": {
    "kind": "dev",
    "methods": {},
    "version": 1
  },
  "userdoc": {
    "kind": "user",
    "methods": {},
    "version": 1
  }
}